{
  "contractName": "VotingSC",
  "abi": [
    {
      "inputs": [],
      "payable": false,
      "stateMutability": "nonpayable",
      "type": "constructor"
    },
    {
      "anonymous": false,
      "inputs": [
        {
          "indexed": true,
          "internalType": "uint256",
          "name": "_candidateId",
          "type": "uint256"
        }
      ],
      "name": "votedEvent",
      "type": "event"
    },
    {
      "constant": true,
      "inputs": [],
      "name": "admin",
      "outputs": [
        {
          "internalType": "address",
          "name": "",
          "type": "address"
        }
      ],
      "payable": false,
      "stateMutability": "view",
      "type": "function"
    },
    {
      "constant": true,
      "inputs": [
        {
          "internalType": "uint256",
          "name": "",
          "type": "uint256"
        }
      ],
      "name": "candidateArray",
      "outputs": [
        {
          "internalType": "uint256",
          "name": "id",
          "type": "uint256"
        },
        {
          "internalType": "string",
          "name": "name",
          "type": "string"
        },
        {
          "internalType": "uint256",
          "name": "voteCount",
          "type": "uint256"
        }
      ],
      "payable": false,
      "stateMutability": "view",
      "type": "function"
    },
    {
      "constant": true,
      "inputs": [
        {
          "internalType": "uint256",
          "name": "",
          "type": "uint256"
        }
      ],
      "name": "candidates",
      "outputs": [
        {
          "internalType": "uint256",
          "name": "id",
          "type": "uint256"
        },
        {
          "internalType": "string",
          "name": "name",
          "type": "string"
        },
        {
          "internalType": "uint256",
          "name": "voteCount",
          "type": "uint256"
        }
      ],
      "payable": false,
      "stateMutability": "view",
      "type": "function"
    },
    {
      "constant": true,
      "inputs": [],
      "name": "candidatesCount",
      "outputs": [
        {
          "internalType": "uint256",
          "name": "",
          "type": "uint256"
        }
      ],
      "payable": false,
      "stateMutability": "view",
      "type": "function"
    },
    {
      "constant": true,
      "inputs": [
        {
          "internalType": "address",
          "name": "",
          "type": "address"
        }
      ],
      "name": "voters",
      "outputs": [
        {
          "internalType": "bool",
          "name": "",
          "type": "bool"
        }
      ],
      "payable": false,
      "stateMutability": "view",
      "type": "function"
    },
    {
      "constant": true,
      "inputs": [],
      "name": "votingEndTime",
      "outputs": [
        {
          "internalType": "uint256",
          "name": "",
          "type": "uint256"
        }
      ],
      "payable": false,
      "stateMutability": "view",
      "type": "function"
    },
    {
      "constant": true,
      "inputs": [],
      "name": "votingEnded",
      "outputs": [
        {
          "internalType": "bool",
          "name": "",
          "type": "bool"
        }
      ],
      "payable": false,
      "stateMutability": "view",
      "type": "function"
    },
    {
      "constant": false,
      "inputs": [
        {
          "internalType": "string",
          "name": "_name",
          "type": "string"
        }
      ],
      "name": "addCandidate",
      "outputs": [],
      "payable": false,
      "stateMutability": "nonpayable",
      "type": "function"
    },
    {
      "constant": false,
      "inputs": [
        {
          "internalType": "uint256",
          "name": "_candidateId",
          "type": "uint256"
        }
      ],
      "name": "vote",
      "outputs": [],
      "payable": false,
      "stateMutability": "nonpayable",
      "type": "function"
    },
    {
      "constant": true,
      "inputs": [],
      "name": "getCandidate",
      "outputs": [
        {
          "components": [
            {
              "internalType": "uint256",
              "name": "id",
              "type": "uint256"
            },
            {
              "internalType": "string",
              "name": "name",
              "type": "string"
            },
            {
              "internalType": "uint256",
              "name": "voteCount",
              "type": "uint256"
            }
          ],
          "internalType": "struct VotingSC.Candidate[]",
          "name": "",
          "type": "tuple[]"
        }
      ],
      "payable": false,
      "stateMutability": "view",
      "type": "function"
    },
    {
      "constant": true,
      "inputs": [],
      "name": "getRemainingTime",
      "outputs": [
        {
          "internalType": "uint256",
          "name": "",
          "type": "uint256"
        }
      ],
      "payable": false,
      "stateMutability": "view",
      "type": "function"
    },
    {
      "constant": false,
      "inputs": [],
      "name": "endVoting",
      "outputs": [],
      "payable": false,
      "stateMutability": "nonpayable",
      "type": "function"
    },
    {
      "constant": true,
      "inputs": [],
      "name": "displayWinner",
      "outputs": [
        {
          "components": [
            {
              "internalType": "uint256",
              "name": "id",
              "type": "uint256"
            },
            {
              "internalType": "string",
              "name": "name",
              "type": "string"
            },
            {
              "internalType": "uint256",
              "name": "voteCount",
              "type": "uint256"
            }
          ],
          "internalType": "struct VotingSC.Candidate",
          "name": "",
          "type": "tuple"
        }
      ],
      "payable": false,
      "stateMutability": "view",
      "type": "function"
    }
  ],
  "bytecode": "0x608060405260006003556000600660006101000a81548160ff0219169083151502179055503480156200003157600080fd5b5033600460006101000a81548173ffffffffffffffffffffffffffffffffffffffff021916908373ffffffffffffffffffffffffffffffffffffffff160217905550620000b96040518060400160405280600781526020017f736f7266696e61000000000000000000000000000000000000000000000000008152506200011260201b60201c565b620000ff6040518060400160405280600881526020017f4661647a6c696e610000000000000000000000000000000000000000000000008152506200011260201b60201c565b6302faf0804201600581905550620003c8565b600460009054906101000a900473ffffffffffffffffffffffffffffffffffffffff1673ffffffffffffffffffffffffffffffffffffffff163373ffffffffffffffffffffffffffffffffffffffff1614620001a5576040517f08c379a00000000000000000000000000000000000000000000000000000000081526004016200019c9062000395565b60405180910390fd5b60036000815480929190600101919050555060405180606001604052806003548152602001828152602001600081525060016000600354815260200190815260200160002060008201518160000155602082015181600101908051906020019062000212929190620002a4565b506040820151816002015590505060026040518060600160405280600354815260200183815260200160008152509080600181540180825580915050906001820390600052602060002090600302016000909192909190915060008201518160000155602082015181600101908051906020019062000293929190620002a4565b506040820151816002015550505050565b828054600181600116156101000203166002900490600052602060002090601f016020900481019282601f10620002e757805160ff191683800117855562000318565b8280016001018555821562000318579182015b8281111562000317578251825591602001919060010190620002fa565b5b5090506200032791906200032b565b5090565b6200035091905b808211156200034c57600081600090555060010162000332565b5090565b90565b600062000362601d83620003b7565b91507f4f6e6c792061646d696e2063616e206164642063616e646964617465730000006000830152602082019050919050565b60006020820190508181036000830152620003b08162000353565b9050919050565b600082825260208201905092915050565b6113c780620003d86000396000f3fe608060405234801561001057600080fd5b50600436106100cf5760003560e01c8063595fa5d71161008c578063a3ec138d11610066578063a3ec138d14610206578063c3403ddf14610236578063efb98bcf14610240578063f851a4401461025e576100cf565b8063595fa5d7146101ac57806370218b85146101ca5780639d5a0529146101e8576100cf565b80630121b93f146100d45780631ea736e0146100f05780632d35a8a21461010e5780633477ee2e1461012c57806335a893a11461015e578063462e91ec14610190575b600080fd5b6100ee60048036036100e99190810190610d49565b61027c565b005b6100f86103be565b60405161010591906111a3565b60405180910390f35b6101166103c4565b60405161012391906111a3565b60405180910390f35b61014660048036036101419190810190610d49565b6103ca565b604051610155939291906111be565b60405180910390f35b61017860048036036101739190810190610d49565b61048c565b604051610187939291906111be565b60405180910390f35b6101aa60048036036101a59190810190610d08565b61055b565b005b6101b46106e6565b6040516101c19190611181565b60405180910390f35b6101d261087e565b6040516101df91906110a4565b60405180910390f35b6101f06109d3565b6040516101fd91906110c6565b60405180910390f35b610220600480360361021b9190810190610cdf565b6109e6565b60405161022d91906110c6565b60405180910390f35b61023e610a06565b005b610248610afe565b60405161025591906111a3565b60405180910390f35b610266610b54565b6040516102739190611089565b60405180910390f35b60055442106102c0576040517f08c379a00000000000000000000000000000000000000000000000000000000081526004016102b790611121565b60405180910390fd5b6000811180156102d257506003548111155b610311576040517f08c379a000000000000000000000000000000000000000000000000000000000815260040161030890611161565b60405180910390fd5b60016000803373ffffffffffffffffffffffffffffffffffffffff1673ffffffffffffffffffffffffffffffffffffffff16815260200190815260200160002060006101000a81548160ff0219169083151502179055506001600082815260200190815260200160002060020160008154809291906001019190505550807ffff3c900d938d21d0990d786e819f29b8d05c1ef587b462b939609625b684b1660405160405180910390a250565b60055481565b60035481565b6001602052806000526040600020600091509050806000015490806001018054600181600116156101000203166002900480601f01602080910402602001604051908101604052809291908181526020018280546001816001161561010002031660029004801561047c5780601f106104515761010080835404028352916020019161047c565b820191906000526020600020905b81548152906001019060200180831161045f57829003601f168201915b5050505050908060020154905083565b6002818154811061049957fe5b9060005260206000209060030201600091509050806000015490806001018054600181600116156101000203166002900480601f01602080910402602001604051908101604052809291908181526020018280546001816001161561010002031660029004801561054b5780601f106105205761010080835404028352916020019161054b565b820191906000526020600020905b81548152906001019060200180831161052e57829003601f168201915b5050505050908060020154905083565b600460009054906101000a900473ffffffffffffffffffffffffffffffffffffffff1673ffffffffffffffffffffffffffffffffffffffff163373ffffffffffffffffffffffffffffffffffffffff16146105eb576040517f08c379a00000000000000000000000000000000000000000000000000000000081526004016105e290611101565b60405180910390fd5b600360008154809291906001019190505550604051806060016040528060035481526020018281526020016000815250600160006003548152602001908152602001600020600082015181600001556020820151816001019080519060200190610656929190610b7a565b50604082015181600201559050506002604051806060016040528060035481526020018381526020016000815250908060018154018082558091505090600182039060005260206000209060030201600090919290919091506000820151816000015560208201518160010190805190602001906106d5929190610b7a565b506040820151816002015550505050565b6106ee610bfa565b600660009054906101000a900460ff1661073d576040517f08c379a000000000000000000000000000000000000000000000000000000000815260040161073490611141565b60405180910390fd5b610745610bfa565b60008090506000600190505b600354811161087557816001600083815260200190815260200160002060020154111561086857600160008281526020019081526020016000206002015491506001600082815260200190815260200160002060405180606001604052908160008201548152602001600182018054600181600116156101000203166002900480601f0160208091040260200160405190810160405280929190818152602001828054600181600116156101000203166002900480156108525780601f1061082757610100808354040283529160200191610852565b820191906000526020600020905b81548152906001019060200180831161083557829003601f168201915b5050505050815260200160028201548152505092505b8080600101915050610751565b50819250505090565b6060806003546040519080825280602002602001820160405280156108bd57816020015b6108aa610c1b565b8152602001906001900390816108a25790505b5090506000600190505b60035481116109cb576001600082815260200190815260200160002060405180606001604052908160008201548152602001600182018054600181600116156101000203166002900480601f0160208091040260200160405190810160405280929190818152602001828054600181600116156101000203166002900480156109915780601f1061096657610100808354040283529160200191610991565b820191906000526020600020905b81548152906001019060200180831161097457829003601f168201915b505050505081526020016002820154815250508260018303815181106109b357fe5b602002602001018190525080806001019150506108c7565b508091505090565b600660009054906101000a900460ff1681565b60006020528060005260406000206000915054906101000a900460ff1681565b6005544210610a4a576040517f08c379a0000000000000000000000000000000000000000000000000000000008152600401610a4190611121565b60405180910390fd5b600460009054906101000a900473ffffffffffffffffffffffffffffffffffffffff1673ffffffffffffffffffffffffffffffffffffffff163373ffffffffffffffffffffffffffffffffffffffff1614610ada576040517f08c379a0000000000000000000000000000000000000000000000000000000008152600401610ad1906110e1565b60405180910390fd5b6001600660006101000a81548160ff02191690831515021790555042600581905550565b60006005544210610b44576040517f08c379a0000000000000000000000000000000000000000000000000000000008152600401610b3b90611121565b60405180910390fd5b6000426005540390508091505090565b600460009054906101000a900473ffffffffffffffffffffffffffffffffffffffff1681565b828054600181600116156101000203166002900490600052602060002090601f016020900481019282601f10610bbb57805160ff1916838001178555610be9565b82800160010185558215610be9579182015b82811115610be8578251825591602001919060010190610bcd565b5b509050610bf69190610c3c565b5090565b60405180606001604052806000815260200160608152602001600081525090565b60405180606001604052806000815260200160608152602001600081525090565b610c5e91905b80821115610c5a576000816000905550600101610c42565b5090565b90565b600081359050610c7081611356565b92915050565b600082601f830112610c8757600080fd5b8135610c9a610c9582611229565b6111fc565b91508082526020830160208301858383011115610cb657600080fd5b610cc1838284611303565b50505092915050565b600081359050610cd98161136d565b92915050565b600060208284031215610cf157600080fd5b6000610cff84828501610c61565b91505092915050565b600060208284031215610d1a57600080fd5b600082013567ffffffffffffffff811115610d3457600080fd5b610d4084828501610c76565b91505092915050565b600060208284031215610d5b57600080fd5b6000610d6984828501610cca565b91505092915050565b6000610d7e838361101b565b905092915050565b610d8f816112bb565b82525050565b6000610da082611265565b610daa8185611288565b935083602082028501610dbc85611255565b8060005b85811015610df85784840389528151610dd98582610d72565b9450610de48361127b565b925060208a01995050600181019050610dc0565b50829750879550505050505092915050565b610e13816112cd565b82525050565b6000610e2482611270565b610e2e8185611299565b9350610e3e818560208601611312565b610e4781611345565b840191505092915050565b6000610e5d82611270565b610e6781856112aa565b9350610e77818560208601611312565b610e8081611345565b840191505092915050565b6000610e986019836112aa565b91507f4f6e6c792061646d696e2063616e20656e6420766f74696e67000000000000006000830152602082019050919050565b6000610ed8601d836112aa565b91507f4f6e6c792061646d696e2063616e206164642063616e646964617465730000006000830152602082019050919050565b6000610f186010836112aa565b91507f566f74696e672068617320656e646564000000000000000000000000000000006000830152602082019050919050565b6000610f586014836112aa565b91507f566f74696e6720686173206e6f7420656e6465640000000000000000000000006000830152602082019050919050565b6000610f986014836112aa565b91507f496e76616c69642063616e6469646174652049440000000000000000000000006000830152602082019050919050565b6000606083016000830151610fe3600086018261106b565b5060208301518482036020860152610ffb8282610e19565b9150506040830151611010604086018261106b565b508091505092915050565b6000606083016000830151611033600086018261106b565b506020830151848203602086015261104b8282610e19565b9150506040830151611060604086018261106b565b508091505092915050565b611074816112f9565b82525050565b611083816112f9565b82525050565b600060208201905061109e6000830184610d86565b92915050565b600060208201905081810360008301526110be8184610d95565b905092915050565b60006020820190506110db6000830184610e0a565b92915050565b600060208201905081810360008301526110fa81610e8b565b9050919050565b6000602082019050818103600083015261111a81610ecb565b9050919050565b6000602082019050818103600083015261113a81610f0b565b9050919050565b6000602082019050818103600083015261115a81610f4b565b9050919050565b6000602082019050818103600083015261117a81610f8b565b9050919050565b6000602082019050818103600083015261119b8184610fcb565b905092915050565b60006020820190506111b8600083018461107a565b92915050565b60006060820190506111d3600083018661107a565b81810360208301526111e58185610e52565b90506111f4604083018461107a565b949350505050565b6000604051905081810181811067ffffffffffffffff8211171561121f57600080fd5b8060405250919050565b600067ffffffffffffffff82111561124057600080fd5b601f19601f8301169050602081019050919050565b6000819050602082019050919050565b600081519050919050565b600081519050919050565b6000602082019050919050565b600082825260208201905092915050565b600082825260208201905092915050565b600082825260208201905092915050565b60006112c6826112d9565b9050919050565b60008115159050919050565b600073ffffffffffffffffffffffffffffffffffffffff82169050919050565b6000819050919050565b82818337600083830152505050565b60005b83811015611330578082015181840152602081019050611315565b8381111561133f576000848401525b50505050565b6000601f19601f8301169050919050565b61135f816112bb565b811461136a57600080fd5b50565b611376816112f9565b811461138157600080fd5b5056fea365627a7a7231582034224caada08d495cf8f73360b05186c2a2d4e3f5561b2344520c7054095f2f76c6578706572696d656e74616cf564736f6c63430005100040",
  "source": "// SPDX-License-Identifier: UNLICENSED\r\npragma solidity >=0.4.22 <0.9.0;\r\npragma experimental ABIEncoderV2;\r\n\r\n\r\ncontract VotingSC {\r\n    struct Candidate {\r\n        uint id;\r\n        string name;\r\n        uint voteCount;\r\n    }\r\n\r\n    mapping(address => bool) public voters;\r\n    mapping(uint => Candidate) public candidates;\r\n    Candidate[] public candidateArray;\r\n    uint public candidatesCount = 0;\r\n\r\n    event votedEvent(uint indexed _candidateId);\r\n\r\n    address public admin;\r\n    uint public votingEndTime;\r\n    bool public votingEnded = false;\r\n\r\n    constructor() public {\r\n        admin = msg.sender;\r\n        addCandidate(\"sorfina\");\r\n        addCandidate(\"Fadzlina\");\r\n        // Set the voting end time \r\n        votingEndTime = block.timestamp + 50000000; \r\n    }\r\n\r\n    modifier onlyBeforeVotingEnd() {\r\n        require(block.timestamp < votingEndTime, \"Voting has ended\");\r\n        _;\r\n    }\r\n\r\n    function addCandidate(string memory _name) public {\r\n        require(msg.sender == admin, \"Only admin can add candidates\");\r\n        candidatesCount++;\r\n        candidates[candidatesCount] = Candidate(candidatesCount, _name, 0);\r\n        candidateArray.push(Candidate(candidatesCount, _name, 0)); // this like is like append fx\r\n    }\r\n\r\n    function vote(uint _candidateId) public onlyBeforeVotingEnd {\r\n        //require(!voters[msg.sender], \"You have already voted\"); //checks whether the address of the caller (msg.sender) has already voted\r\n        require(_candidateId > 0 && _candidateId <= candidatesCount, \"Invalid candidate ID\"); //user needs to select more than 0 and less than avaible candidate's count\r\n        voters[msg.sender] = true; //Marks msg.sender as having voted by setting the corresponding value in the voters mapping to true\r\n        candidates[_candidateId].voteCount++;\r\n        emit votedEvent(_candidateId);\r\n    }\r\n\r\n    function getCandidate() public view returns (Candidate[] memory) {\r\n        Candidate[] memory allCandidates = new Candidate[](candidatesCount);\r\n\r\n        for (uint i = 1; i <= candidatesCount; i++) {\r\n            allCandidates[i - 1] = candidates[i];\r\n        }\r\n\r\n        return allCandidates;\r\n    }\r\n\r\n\r\n    function getRemainingTime() public view onlyBeforeVotingEnd returns (uint) {\r\n        uint remainingTime = votingEndTime - block.timestamp;\r\n        return remainingTime;\r\n    }\r\n\r\n    function endVoting() public onlyBeforeVotingEnd {\r\n            require(msg.sender == admin, \"Only admin can end voting\");\r\n            votingEnded = true;\r\n            votingEndTime = block.timestamp; // Set the end time to the current block timestamp\r\n        }\r\n\r\n    function displayWinner() public view returns (Candidate memory) {\r\n        require(votingEnded, \"Voting has not ended\");\r\n\r\n        Candidate memory winner;\r\n        uint maxVotes = 0;\r\n\r\n        for (uint i = 1; i <= candidatesCount; i++) {\r\n            if (candidates[i].voteCount > maxVotes) {\r\n                maxVotes = candidates[i].voteCount;\r\n                winner = candidates[i];\r\n            }\r\n        }\r\n\r\n        return winner;\r\n    }\r\n\r\n    function _hasVoted(address _voter) internal view returns (bool) {\r\n        return voters[_voter];\r\n    }\r\n\r\n\r\n\r\n}\r\n",
  "sourcePath": "D:\\a Sem I 23 24\\4 BLOCKCHAIN AND APPLICATION\\testing\\voting-Dapp\\contracts\\VotingSC.sol",
  "compiler": {
    "name": "solc",
    "version": "0.5.16+commit.9c3226ce.Emscripten.clang"
  },
  "schemaVersion": "3.4.4",
  "updatedAt": "2024-01-12T02:32:26.365Z",
  "networkType": "ethereum",
  "devdoc": {
    "methods": {}
  },
  "userdoc": {
    "methods": {}
  }
}